:020000040800F2
:1000000000000320057000081511000825110008E4
:100010002D110008351100083D11000800000000F6
:100020000000000000000000000000004511000872
:100030005511000800000000651100087511000846
:10004000557000085570000855700008557000087C
:10005000557000085570000855700008557000086C
:10006000557000085570000855700008557000085C
:10007000811100085570000855700008557000087F
:10008000951100085570000855700008A911000866
:10009000BD11000855700008557000085570000823
:1000A000557000085570000855700008557000081C
:1000B000557000085570000855700008557000080C
:1000C00055700008557000085570000855700008FC
:1000D00055700008D1110008FD1500081116000820
:1000E0002516000855700008557000085570000866
:1000F00055700008557000085570000855700008CC
:1001000055700008557000085570000855700008BB
:100110005570000855700008351600085570000825
:1001200055700008491600085D1600087116000891
:1001300055700008557000085570000885160008B5
:100140009916000855700008557000085570000891
:10015000557000085570000855700008AD1600086D
:10016000557000085570000855700008557000085B
:100170005570000855700008557000080000000018
:10018000557000085570000855700008557000083B
:10019000557000085570000855700008557000082B
:0C01A00000000000000000005570000886
:1001B00010B5054C237833B9044B13B10448AFF3A1
:1001C00000800123237010BD080000200000000003
:1001D000A4700008084B10B51BB108490848AFF3DC
:1001E00000800848036803B910BD074B002BFBD003
:1001F000BDE81040184700BF000000000C000020C0
:10020000A4700008080000200000000081F00041F8
:1002100002E000BF83F0004330B54FEA41044FEAEB
:10022000430594EA050F08BF90EA020F1FBF54EA86
:10023000000C55EA020C7FEA645C7FEA655C00F022
:10024000E2804FEA5454D4EB5555B8BF6D420CDDF3
:100250002C4480EA020281EA030382EA000083EA76
:10026000010180EA020281EA0303362D88BF30BD16
:1002700011F0004F4FEA01314FF4801C4CEA11316C
:1002800002D0404261EB410113F0004F4FEA0333CB
:100290004CEA133302D0524263EB430394EA050F56
:1002A00000F0A780A4F10104D5F1200E0DDB02FAC5
:1002B0000EFC22FA05F2801841F1000103FA0EF259
:1002C000801843FA05F359410EE0A5F120050EF11F
:1002D000200E012A03FA0EFC28BF4CF0020C43FA50
:1002E00005F3C01851EBE37101F0004507D54FF05D
:1002F000000EDCF1000C7EEB00006EEB0101B1F5AD
:10030000801F1BD3B1F5001F0CD349085FEA3000F2
:100310004FEA3C0C04F101044FEA445212F5800FFD
:1003200080F09A80BCF1004F08BF5FEA500C50F19A
:10033000000041EB045141EA050130BD5FEA4C0C7D
:10034000404141EB010111F4801FA4F10104E9D106
:1003500091F0000F04BF01460020B1FA81F308BFFD
:100360002033A3F10B03B3F120020CDA0C3208DDC9
:1003700002F1140CC2F10C0201FA0CF021FA02F1A4
:100380000CE002F11402D8BFC2F1200C01FA02F114
:1003900020FA0CFCDCBF41EA0C019040E41AA2BF39
:1003A00001EB0451294330BD6FEA04041F3C1CDA01
:1003B0000C340EDC04F11404C4F1200220FA04F021
:1003C00001FA02F340EA030021FA04F345EA0301CB
:1003D00030BDC4F10C04C4F1200220FA02F001FA8D
:1003E00004F340EA0300294630BD21FA04F029460F
:1003F00030BD94F0000F83F4801306BF81F48011A8
:100400000134013D4EE77FEA645C18BF7FEA655C1A
:1004100029D094EA050F08BF90EA020F05D054EAEC
:10042000000C04BF1946104630BD91EA030F1EBFF1
:100430000021002030BD5FEA545C05D140004941F5
:1004400028BF41F0004130BD14F580043CBF01F5E8
:10045000801130BD01F0004545F0FE4141F47001CE
:100460004FF0000030BD7FEA645C1ABF19461046A9
:100470007FEA655C1CBF0B46024650EA013406BFAA
:1004800052EA033591EA030F41F4002130BD00BF69
:1004900090F0000F04BF0021704730B54FF4806426
:1004A00004F132044FF000054FF0000150E700BFA7
:1004B00090F0000F04BF0021704730B54FF4806406
:1004C00004F1320410F0004548BF40424FF00001F3
:1004D0003EE700BF42004FEAE2014FEA31014FEA36
:1004E00002701FBF12F07F4393F07F4F81F0605185
:1004F000704792F0000F14BF93F07F4F704730B5F4
:100500004FF4607401F0004521F0004120E700BF86
:1005100050EA010208BF704730B54FF000050AE00D
:1005200050EA010208BF704730B511F0004502D50E
:10053000404261EB41014FF4806404F132045FEA10
:10054000915C3FF4DCAE4FF003025FEADC0C18BFB5
:1005500003325FEADC0C18BF033202EBDC02C2F1AB
:10056000200300FA03FC20FA02F001FA03FE40EA3D
:100570000E0021FA02F11444C1E600BF70B54FF03D
:10058000FF0C4CF4E06C1CEA11541DBF1CEA13551F
:1005900094EA0C0F95EA0C0F00F0DEF82C4481EA87
:1005A000030621EA4C5123EA4C5350EA013518BFA7
:1005B00052EA033541F4801143F4801338D0A0FB94
:1005C00002CE4FF00005E1FB02E506F00042E0FB41
:1005D00003E54FF00006E1FB03569CF0000F18BF47
:1005E0004EF0010EA4F1FF04B6F5007F64F54074EF
:1005F00004D25FEA4E0E6D4146EB060642EAC62182
:1006000041EA55514FEAC52040EA5E504FEACE2EEE
:10061000B4F1FD0C88BFBCF5E06F1ED8BEF1004FF1
:1006200008BF5FEA500E50F1000041EB045170BD6D
:1006300006F0004646EA010140EA020081EA0301B1
:10064000B4EB5C04C2BFD4EB0C0541EA045170BDAD
:1006500041F480114FF0000E013C00F3AB8014F127
:10066000360FDEBF002001F0004170BDC4F1000470
:10067000203C35DA0C341BDC04F11404C4F12005F1
:1006800000FA05F320FA04F001FA05F240EA02004C
:1006900001F0004221F0004110EBD37021FA04F682
:1006A00042EB06015EEA430E08BF20EAD37070BD3C
:1006B000C4F10C04C4F1200500FA04F320FA05F09B
:1006C00001FA04F240EA020001F0004110EBD3709D
:1006D00041F100015EEA430E08BF20EAD37070BD0D
:1006E000C4F1200500FA05F24EEA020E20FA04F3E6
:1006F00001FA05F243EA020321FA04F001F0004195
:1007000021FA04F220EA020000EBD3705EEA430E05
:1007100008BF20EAD37070BD94F0000F0FD101F034
:100720000046400041EB010111F4801F08BF013C6D
:10073000F7D041EA060195F0000F18BF704703F0AB
:100740000046520043EB030313F4801F08BF013D32
:10075000F7D043EA0603704794EA0C0F0CEA1355EE
:1007600018BF95EA0C0F0CD050EA410618BF52EAA8
:100770004306D1D181EA030101F000414FF00000AE
:1007800070BD50EA410606BF1046194652EA4306BC
:1007900019D094EA0C0F02D150EA013613D195EA30
:1007A0000C0F05D152EA03361CBF104619460AD178
:1007B00081EA030101F0004141F0FE4141F4700182
:1007C0004FF0000070BD41F0FE4141F4780170BD72
:1007D00070B54FF0FF0C4CF4E06C1CEA11541DBFD7
:1007E0001CEA135594EA0C0F95EA0C0F00F0A7F8D9
:1007F000A4EB050481EA030E52EA03354FEA013106
:1008000000F088804FEA03334FF0805545EA131318
:1008100043EA12634FEA022245EA111545EA1065E0
:100820004FEA00260EF000419D4208BF964244F177
:10083000FD0404F5407402D25B084FEA3202B61A96
:1008400065EB03055B084FEA32024FF480104FF46A
:10085000002CB6EB020E75EB030E22BFB61A7546DE
:1008600040EA0C005B084FEA3202B6EB020E75EB71
:10087000030E22BFB61A754640EA5C005B084FEAD9
:100880003202B6EB020E75EB030E22BFB61A7546A6
:1008900040EA9C005B084FEA3202B6EB020E75EBB1
:1008A000030E22BFB61A754640EADC0055EA060E72
:1008B00018D04FEA051545EA16754FEA06164FEAB5
:1008C000C30343EA52734FEAC2025FEA1C1CC0D161
:1008D00011F4801F0BD141EA00014FF000004FF0EE
:1008E000004CB6E711F4801F04BF01430020B4F1AF
:1008F000FD0C88BFBCF5E06F3FF6AFAEB5EB030C67
:1009000004BFB6EB020C5FEA500C50F1000041EB63
:10091000045170BD0EF0004E4EEA113114EB5C0430
:10092000C2BFD4EB0C0541EA045170BD41F4801103
:100930004FF0000E013C90E645EA060E8DE60CEA0B
:10094000135594EA0C0F08BF95EA0C0F3FF43BAF28
:1009500094EA0C0F0AD150EA01347FF434AF95EADF
:100960000C0F7FF425AF104619462CE795EA0C0FC3
:1009700006D152EA03353FF4FDAE1046194622E790
:1009800050EA410618BF52EA43067FF4C5AE50EA6A
:1009900041047FF40DAF52EA43057FF4EBAE12E75A
:1009A0004FEA410212F5001215D211D56FF4787397
:1009B000B3EB625212D94FEAC12343F0004343EA3A
:1009C000505311F0004F23FA02F018BF4042704715
:1009D0004FF00000704750EA013005D111F000409F
:1009E00008BF6FF0004070474FF00000704700BF35
:1009F00080B500AF184B194A1A60174B03225A6092
:100A0000154B00229A60144B0022DA60124B4FF40F
:100A1000E0221A61104B4FF480025A610E4B002203
:100A20009A610D4B0022DA610B4B00221A620A4BCD
:100A300000225A62084B00229A62074B0022DA62B7
:100A4000054802F039FB0346002B03D04621044839
:100A500002F060F800BF80BD240000200064004068
:100A6000BC70000880B500AF194B1A4A1A60184BC9
:100A700005225A60164B00229A60154B4FF04072C7
:100A8000DA60134B4FF400321A61114B4FF48002BD
:100A90005A610F4B00229A610D4B0122DA610C4B17
:100AA00000221A620A4B00225A62094B00229A6203
:100AB000074B0022DA62064802F0FEFA0346002BDA
:100AC00003D05C21044802F025F800BF80BD00BFC0
:100AD0006800002000680040BC70000880B58AB043
:100AE00000AF78607B681B68444A934237D1444B1F
:100AF0001B680133424A1360414B1B68012B0DD127
:100B000000233B613F4A3F4B1B6C43F0007313646F
:100B10003C4B1B6C03F000733B613B6903237B611F
:100B20000223BB610023FB6103233B6209237B6239
:100B300007F114031946344803F096FF0022002100
:100B4000132003F093FB132003F0ACFB00220021E1
:100B5000142003F08BFB142003F0A4FB4AE07B6815
:100B60001B682A4A934245D10023FB60254A254B46
:100B70001B6C43F080631364224B1B6C03F0806397
:100B8000FB60FB681E4B1B6801331D4A13601C4B46
:100B90001B68012B0DD10023BB601A4A194B1B6C3B
:100BA00043F000731364174B1B6C03F00073BB60BE
:100BB000BB684FF440537B610223BB610023FB61A0
:100BC00003233B6209237B6207F114031946104893
:100BD00003F04AFF002200213F2003F047FB3F20A3
:100BE00003F060FB00220021402003F03FFB402087
:100BF00003F058FB00BF2837BD4680BD00640040AD
:100C0000AC00002000380240000C024000680040A8
:100C10000004024080B582B000AF00237B60234A0D
:100C2000224B1B6B43F480031363204B1B6B03F4B9
:100C300080037B607B6800233B601C4A1B4B1B6B63
:100C400043F400131363194B1B6B03F400133B6055
:100C50003B68002200210C2003F008FB0C2003F06D
:100C600021FB00220021102003F000FB102003F0E4
:100C700019FB00220021392003F0F8FA392003F093
:100C800011FB002200213A2003F0F0FA3A2003F091
:100C900009FB002200213B2003F0E8FA3B2003F08F
:100CA00001FB00BF0837BD4680BD00BF00380240D1
:100CB00080B58EB000AF00233B62764A754B1B6B4C
:100CC00043F010031363734B1B6B03F010033B6281
:100CD0003B6A0023FB616F4A6E4B1B6B43F00203C0
:100CE00013636C4B1B6B03F00203FB61FB69002376
:100CF000BB61684A674B1B6B43F040031363654B52
:100D00001B6B03F04003BB61BB6900237B61614A3D
:100D1000604B1B6B43F0080313635E4B1B6B03F0CC
:100D200008037B617B6900233B615A4A594B1B6B6B
:100D300043F001031363574B1B6B03F001033B614B
:100D40003B690023FB60534A524B1B6B43F4807397
:100D50001363504B1B6B03F48073FB60FB68002331
:100D6000BB604C4A4B4B1B6B43F080031363494BF6
:100D70001B6B03F08003BB60BB6800237B60454AAC
:100D8000444B1B6B43F020031363424B1B6B03F07C
:100D900020037B607B68002288213F4804F00EF826
:100DA000012204213C4804F009F800224FF40051CC
:100DB0003A4804F003F8002244F24001384803F0B6
:100DC000FDFF8C237B620123BB620023FB620023B7
:100DD0003B6307F1240319462F4803F045FE022325
:100DE0007B62304BBB620123FB6207F1240319468F
:100DF000294803F039FE4FF400537B620123BB62A4
:100E00000023FB6200233B6307F1240319462348B8
:100E100003F02AFE80237B620023BB620023FB6277
:100E200007F124031946204803F01EFE44F2400354
:100E30007B620123BB620023FB6200233B6307F15B
:100E400024031946164803F00FFE0D237B62174B4F
:100E5000BB620023FB6207F124031946144803F028
:100E600003FE4FF480637B620E4BBB620023FB6288
:100E700007F1240319460C4803F0F6FD0022012176
:100E8000282003F0F3F9282003F00CFA00BF3837CC
:100E9000BD4680BD003802400010024000180240EC
:100EA0000014024000002110000C0240000011104C
:100EB0000000024080B500AF184B194A1A60174B6A
:100EC0004FF482725A60154B00229A60134B002235
:100ED000DA60124B00221A61104B00225A610F4B4C
:100EE0004FF400729A610D4B3022DA610B4B0022F5
:100EF0001A620A4B00225A62084B00229A62074B80
:100F00000A22DA62054804F003FC0346002B03D0F2
:100F10004721044801F0FEFD00BF80BDB000002065
:100F200000500140F470000880B588B000AF7860D0
:100F30007B681B682B4A93424FD10023BB602A4A2F
:100F4000294B5B6C43F480135364274B5B6C03F4B5
:100F50008013BB60BB684FF46073FB6002233B618E
:100F600000237B610323BB610523FB6107F10C03B5
:100F700019461E4803F078FD1D4B1E4A1A601C4B93
:100F80004FF080625A601A4B00229A60184B002280
:100F9000DA60174B4FF480621A61154B00225A61D8
:100FA000134B00229A61124B4FF48072DA61104B9E
:100FB00000221A620E4B00225A620D4803F0B6F965
:100FC0000346002B03D072210B4801F0A3FD7B6880
:100FD000074ADA64064A7B68936300BF2037BD4640
:100FE00080BD00BF005001400038024000140240A4
:100FF0000801002058640240F470000880B500AF7A
:10100000032003F027F9002200216FF00B0003F00A
:101010002DF9002200216FF00A0003F027F90022C9
:1010200000216FF0090003F021F9002200216FF088
:10103000040003F01BF9002200216FF0030003F00D
:1010400015F9002200216FF0010003F00FF90022D2
:1010500000214FF0FF3003F009F900BF80BD00BF51
:1010600080B58CB000AF78600023FB620023BB62C8
:1010700000227968362003F0F9F8362003F012F9DF
:101080000023FB601F4A1F4B1B6C43F010031364CB
:101090001C4B1B6C03F01003FB60FB6807F1100294
:1010A00007F114031146184604F000FB04F0BAFAE5
:1010B00003465B00FB62FB6A134AA2FB03239B0C03
:1010C000013BBB62114B124A1A60104B40F2E732EF
:1010D000DA600E4ABB6A53600C4B00221A610B4B5C
:1010E00000229A60094804F077FB0346002B04D1E4
:1010F000064804F0A7FB034600E0012318463037FA
:10110000BD4680BD0038024083DE1B4368010020DD
:101110000010004080B400AF00BFBD465DF8047B06
:10112000704700BF80B400AFFEE700BF80B400AFDF
:10113000FEE700BF80B400AFFEE700BF80B400AFA1
:10114000FEE700BF80B400AF00BFBD465DF8047B82
:10115000704700BF80B400AF00BFBD465DF8047BA0
:10116000704700BF80B400AF00BFBD465DF8047B90
:10117000704700BF80B500AF03F0CAF800BF80BD64
:1011800080B500AF024803F001FA00BF80BD00BF88
:10119000D004002080B500AF024803F0F7F900BF8B
:1011A00080BD00BF7004002080B500AF024802F08F
:1011B000D7FB00BF80BD00BF2400002080B500AF7A
:1011C000024802F0CDFB00BF80BD00BF240000201C
:1011D00080B500AF9F4805F063F99E4B1B681A4627
:1011E0009D4B9A426CD99D4A9A4B1B6819469C4B61
:1011F000994262D0974B1B6819469A4B99425AD034
:10120000944B1B681946984B994252D0914B1B68DE
:101210001946964B99424AD08E4B1B681946944BFF
:10122000994241D08B4B1B681946924B994238D05A
:10123000884B1B681946904B99422FD0854B1B68F1
:1012400019468E4B994226D0824B1B6819468C4B0F
:1012500099421DD07F4B1B6819468A4B994214D086
:101260007C4B1B681946884B99420BD0794B1B6805
:101270001946864B994202D14FF400131EE04FF0FD
:1012800000631BE04FF4001318E04FF4001315E067
:101290004FF4001312E04FF400630FE04FF40063CB
:1012A0000CE04FF4006309E04FF4006306E02023F4
:1012B00004E0202302E0202300E02023D36077E134
:1012C000644B1B681A46724B9A426CD9634A614B55
:1012D0001B681946624B994262D05E4B1B681946E7
:1012E000604B99425AD05B4B1B6819465E4B994242
:1012F00052D0584B1B6819465C4B99424AD0554B0B
:101300001B6819465A4B994241D0524B1B681946EB
:10131000584B994238D04F4B1B681946564B99424F
:101320002FD04C4B1B681946544B994226D0494B41
:101330001B681946524B99421DD0464B1B681946F3
:10134000504B994214D0434B1B6819464E4B99425F
:101350000BD0404B1B6819464C4B994202D14FF4BD
:1013600000131EE04FF000631BE04FF4001318E081
:101370004FF4001315E04FF4001312E04FF4006334
:101380000FE04FF400630CE04FF4006309E04FF40A
:10139000006306E0202304E0202302E0202300E095
:1013A0002023936004E12B4B1B681A46394B9A4269
:1013B00040F29280384A274B1B681946284B9942C5
:1013C00000F08780234B1B681946264B99427ED03C
:1013D000204B1B681946244B994276D01D4B1B6845
:1013E0001946224B99426ED01A4B1B681946204B66
:1013F000994265D0174B1B6819461E4B99425CD029
:10140000144B1B6819461C4B994253D0114B1B6857
:1014100019461A4B99424AD00E4B1B681946184B75
:10142000994241D00B4B1B681946164B994238D054
:10143000084B1B681946144B99422FD0054B1B686B
:101440001946124B994202D14FF4001342E04FF07B
:1014500000633FE010030020586402400064024033
:1014600010600240106402407060024070640240EC
:10147000286002402864024088600240886402407C
:101480004060024040640240A0600240A06402400C
:10149000B860024058600240006002404FF4001300
:1014A00018E04FF4001315E04FF4001312E04FF46E
:1014B00000630FE04FF400630CE04FF4006309E0B9
:1014C0004FF4006306E0202304E0202302E0202301
:1014D00000E02023D3606BE03A4A3B4B1B6819467F
:1014E0003A4B994262D0384B1B681946384B9942A7
:1014F0005AD0354B1B681946364B994252D0324B65
:101500001B681946344B99424AD02F4B1B68194629
:10151000324B994241D02C4B1B681946304B9942B3
:1015200038D0294B1B6819462E4B99422FD0264B99
:101530001B6819462C4B994226D0234B1B68194631
:101540002A4B99421DD0204B1B681946284B9942C3
:1015500014D01D4B1B681946264B99420BD01A4BD1
:101560001B681946244B994202D14FF400131EE028
:101570004FF000631BE04FF4001318E04FF400132A
:1015800015E04FF4001312E04FF400630FE04FF446
:1015900000630CE04FF4006309E04FF4006306E0E1
:1015A000202304E0202302E0202300E02023936096
:1015B00001F0E0FA044804F0D7FF034805F026F8EC
:1015C00000BF80BD00600240100300201060024098
:1015D0001064024070600240706402402860024063
:1015E00028640240886002408864024040600240F3
:1015F00040640240A0600240A064024080B500AF99
:10160000024805F003F800BF80BD00BF5003002072
:1016100080B500AF024804F0F9FF00BF80BD00BFF5
:101620009003002080B500AF4FF4806003F0E0FB32
:1016300000BF80BD80B500AF024804F04BF900BF89
:1016400080BD00BF6801002080B500AF024802F0F5
:101650009DFF00BF80BD00BF3005002080B500AFFA
:10166000024802F093FF00BF80BD00BF10040020BD
:1016700080B500AF024802F089FF00BF80BD00BF07
:101680000801002080B500AF024802F069F900BFF0
:1016900080BD00BF6800002080B500AF024802F0A6
:1016A0005FF900BF80BD00BF6800002080B500AFBB
:1016B000024804F0ABFF00BF80BD00BFD003002094
:1016C00080B400AF164A164BD3F8883043F4700349
:1016D000C2F88830134A134B1B6843F001031360B0
:1016E000104B00229A600F4A0E4B1B6823F0847344
:1016F00023F4803313600B4B0B4A5A60094A094BA1
:101700001B6823F480231360064B0022DA60044B2D
:101710004FF000629A6000BFBD465DF8047B7047E1
:1017200000ED00E0003802401030002480B58AB09F
:1017300000AF374B4FF080421A60354B00225A60A1
:10174000334B00229A60324B0022DA60304B002289
:101750001A612F4804F092F80346002B03D043216E
:101760002C4801F0D7F900233B6200237B6207F18C
:1017700020031946264804F011FD0346002B03D030
:101780004A21244801F0C6F960237B600023BB6036
:101790000023FB6000237B613B1D002219461C488F
:1017A00004F0A0F90346002B03D05321194801F09F
:1017B000B1F93B1D04221946154804F093F903467C
:1017C000002B03D05821134801F0A4F93B1D082237
:1017D00019460F4804F086F90346002B03D05D211B
:1017E0000C4801F097F93B1D0C221946084804F0FB
:1017F00079F90346002B03D06221064801F08AF9EB
:10180000034800F0D9FA00BF2837BD4680BD00BFAD
:10181000A80100204471000880B58AB000AF294BB0
:10182000294A1A60274BB3225A60264B00229A603D
:10183000244B0022DA60234B00221A61214804F075
:101840001DF80346002B03D07521204801F062F9F2
:1018500000233B6200237B6207F1200319461948ED
:1018600004F09CFC0346002B03D07C21174801F0B8
:1018700051F960237B600023BB600023FB600023E1
:101880007B613B1D002219460E4804F02BF90346EC
:10189000002B03D085210D4801F03CF93B1D0422AB
:1018A0001946084804F01EF90346002B03D08A218C
:1018B000064801F02FF9034800F07EFA00BF2837F0
:1018C000BD4680BDE40100200004004044710008D2
:1018D00080B58AB000AF364B364A1A60344B0022CE
:1018E0005A60334B00229A60314B0022DA60304B51
:1018F00000221A612E4803F0C1FF0346002B03D0DB
:101900009D212D4801F006F900233B6200237B62F4
:1019100007F120031946264804F040FC0346002B3B
:1019200003D0A421244801F0F5F860237B60002354
:10193000BB600023FB6000237B613B1D0022194636
:101940001B4804F0CFF80346002B03D0AD211A4802
:1019500001F0E0F83B1D04221946154804F0C2F8D6
:101960000346002B03D0B221134801F0D3F83B1DEE
:10197000082219460E4804F0B5F80346002B03D0A0
:10198000B7210D4801F0C6F83B1D0C221946084846
:1019900004F0A8F80346002B03D0BC21064801F050
:1019A000B9F8034800F008FA00BF2837BD4680BDEB
:1019B00020020020000800404471000880B58AB071
:1019C00000AF384B384A1A60364B59225A60354BB3
:1019D00000229A60334B40F6C312DA60314B00228A
:1019E0001A61304803F04AFF0346002B03D0CF2191
:1019F0002E4801F08FF800233B6200237B6207F141
:101A000020031946274804F0C9FB0346002B03D0E6
:101A1000D621264801F07EF860237B604FF47A736C
:101A2000BB600023FB6000237B613B1D0022194645
:101A30001C4804F057F80346002B03D0DF211B4855
:101A400001F068F83B1D04221946164804F04AF8D4
:101A50000346002B03D0E421144801F05BF8002377
:101A6000BB603B1D082219460E4804F03BF80346B4
:101A7000002B03D0EA210D4801F04CF83B1D0C224D
:101A80001946084804F02EF80346002B03D0EF2136
:101A9000064801F03FF8034800F08EF900BF2837F0
:101AA000BD4680BD5C020020000C0040447100086F
:101AB00080B590B000AF4E4B4E4A1A604C4B00229E
:101AC0005A604B4B00229A60494B0022DA60484B27
:101AD00000221A61464B00225A61454803F0CEFEAF
:101AE0000346002B04D04FF48271434801F012F8F2
:101AF0000023BB630023FB6307F1380319463C480E
:101B000004F04CFB0346002B04D040F20B113A4882
:101B100001F000F86023FB6100233B6200237B623D
:101B20000023BB620023FB6200233B6300237B6333
:101B300007F11C03002219462D4803F0D3FF03468A
:101B4000002B04D040F217112B4800F0E3FF07F1FF
:101B50001C0304221946264803F0C4FF0346002B49
:101B600004D04FF48E71244800F0D4FF07F11C0319
:101B7000082219461E4803F0B5FF0346002B04D087
:101B800040F221111C4800F0C5FF07F11C030C2294
:101B90001946174803F0A6FF0346002B04D04FF464
:101BA0009371154800F0B6FF00233B6000237B6073
:101BB0000023BB600023FB6000233B614FF4005314
:101BC0007B610023BB613B461946094804F02CFBAE
:101BD0000346002B04D04FF49971074800F09AFF98
:101BE000034800F0E9F800BF4037BD4680BD00BFA4
:101BF00098020020000401404471000880B588B0BC
:101C000000AF234B234A1A60214B59225A60204BC4
:101C100000229A601E4B40F6C312DA601C4B002271
:101C20001A611B4803F02AFE0346002B04D04FF430
:101C3000A271194800F06EFF60237B604FF47A7345
:101C4000BB600023FB6000237B613B1D0022194623
:101C50000F4803F047FF0346002B04D040F24D111C
:101C60000D4800F057FF3B1D04221946084803F0B9
:101C700039FF0346002B04D04FF4A971064800F049
:101C800049FF034800F098F800BF2037BD4680BDEB
:101C9000D4020020001800404471000880B489B0CC
:101CA00000AF78607B681B68B3F1804F0ED10023D2
:101CB000FB613B4A3A4B1B6C43F001031364384B06
:101CC0001B6C03F00103FB61FB6962E07B681B682E
:101CD000344A93420ED10023BB61314A304B1B6C16
:101CE00043F0020313642E4B1B6C03F00203BB6131
:101CF000BB694EE07B681B682B4A93420ED10023E0
:101D00007B61274A264B1B6C43F004031364244B6E
:101D10001B6C03F004037B617B693AE07B681B6802
:101D2000224A93420ED100233B611D4A1C4B1B6C7F
:101D300043F0080313641A4B1B6C03F008033B6168
:101D40003B6926E07B681B68194A93420ED1002349
:101D5000FB60134A124B5B6C43F002035364104B5D
:101D60005B6C03F00203FB60FB6812E07B681B689E
:101D7000104A93420DD10023BB60094A084B1B6CEB
:101D800043F040031364064B1B6C03F04003BB603D
:101D9000BB6800BF2437BD465DF8047B704700BFB9
:101DA000003802400004004000080040000C0040E1
:101DB000000401400018004080B588B000AF786092
:101DC0007B681B68B3F1804F22D140F60843FB606B
:101DD00002233B6100237B610023BB610123FB6184
:101DE00007F10C031946554802F03EFE4FF400433C
:101DF000FB6002233B6100237B610023BB61012365
:101E0000FB6107F10C0319464D4802F02DFE90E0EE
:101E10007B681B684B4A934210D13023FB6002233E
:101E20003B6100237B610023BB610223FB6107F15F
:101E30000C031946414802F017FE7AE07B681B68E4
:101E4000414A934222D14FF44073FB6002233B612D
:101E500000237B610023BB610223FB6107F10C03BC
:101E60001946364802F000FE4FF44053FB6002234F
:101E70003B6100237B610023BB610223FB6107F10F
:101E80000C031946314802F0EFFD52E07B681B68F5
:101E90002F4A934221D10123FB6002233B6100239F
:101EA0007B610023BB610223FB6107F10C03194630
:101EB000284802F0D9FD4FF4E053FB6002233B6158
:101EC00000237B610023BB610223FB6107F10C034C
:101ED0001946214802F0C8FD2BE07B681B681F4AA9
:101EE000934210D1E423FB6002233B6100237B611A
:101EF0000023BB610323FB6107F10C03194615485E
:101F000002F0B2FD15E07B681B68154A934210D1C0
:101F10004FF41073FB6002233B6100237B610023BD
:101F2000BB610923FB6107F10C0319460A4802F063
:101F30009BFD00BF2037BD4680BD00BF00040240AE
:101F4000000002400004004000080040000C024075
:101F5000000C004000200240001C02400004014030
:101F60000018004080B500AF124B134A1A60114BA5
:101F7000124A5A600F4B00229A600E4B0022DA6020
:101F80000C4B4FF480621A610A4B0C225A61094BC8
:101F900000229A61074B0022DA61064804F0B2F988
:101FA0000346002B03D04A21054800F0B3FD00BFD3
:101FB00080BD00BF1003002000100140A08601007A
:101FC0007C71000880B500AF124B134A1A60114BA8
:101FD0004FF4E1325A600F4B00229A600D4B002201
:101FE000DA600C4B00221A610A4B0C225A61094B31
:101FF00000229A61074B0022DA61064804F082F958
:102000000346002B03D05D21044800F083FD00BF90
:1020100080BD00BF50030020004400407C710008D8
:1020200080B500AF124B134A1A60114B4FF4E132E6
:102030005A600F4B00229A600D4B0022DA600C4B65
:1020400000221A610A4B0C225A61094B00229A6144
:10205000074B0022DA61064804F054F90346002BCE
:1020600003D07021044800F055FD00BF80BD00BFC3
:1020700090030020004800407C71000880B500AF4C
:10208000124B134A1A60114B4FF4E1325A600F4B56
:1020900000229A600D4B0022DA600C4B00221A617C
:1020A0000A4B0C225A61094B00229A61074B00220D
:1020B000DA61064804F026F90346002B03D0832199
:1020C000044800F027FD00BF80BD00BFD003002002
:1020D000001401407C71000880B58CB000AF7860BE
:1020E0007B681B688A4A934257D10023BB61894AA7
:1020F000884B5B6C43F010035364864B5B6C03F0BE
:102100001003BB61BB69C023FB6102233B62012357
:102110007B620323BB620723FB6207F11C031946A2
:102120007D4802F0A1FC7D4B7D4A1A607B4B4FF04D
:1021300000625A60794B00229A60784B0022DA6084
:10214000764B4FF480621A61744B00225A61734BD4
:1021500000229A61714B4FF48072DA616F4B00225A
:102160001A626E4B00225A626C4802F0DFF8034696
:10217000002B03D0AD216B4800F0CCFC7B68674A94
:102180005A63664A7B68936300220021252002F08F
:102190006DF8252002F086F831E17B681B68624A01
:1021A000934256D100237B615A4A5A4B1B6C43F42D
:1021B00000331364574B1B6C03F400337B617B6962
:1021C0006023FB6102233B6201237B620323BB622A
:1021D0000723FB6207F11C031946544802F044FC34
:1021E000534B544A1A60524B4FF000625A60504BA6
:1021F00000229A604E4B0022DA604D4B4FF4806211
:102200001A614B4B00225A61494B00229A61484B9C
:102210000022DA61464B00221A62454B00225A62C4
:10222000434802F083F80346002B03D0DA213D48EF
:1022300000F070FC7B683E4A5A633D4A7B689363BA
:1022400000220021262002F011F8262002F02AF8B0
:10225000D5E07B681B68384A934273D100233B6109
:102260002C4A2C4B1B6C43F480231364294B1B6CAE
:1022700003F480233B613B694FF44073FB6102230D
:102280003B6201237B620323BB620723FB6207F1EE
:102290001C031946254802F0E7FB284B284A1A6020
:1022A000264B4FF000625A60244B00229A60234B69
:1022B0000022DA60214B4FF480621A611F4B00222A
:1022C0005A611E4B00229A611C4B0022DA611B4BA3
:1022D00000221A62194B00225A62184802F026F8AE
:1022E0000346002B04D040F207110E4800F012FC08
:1022F0007B68124A5A63114A7B689363002200216B
:10230000272001F0B3FF272001F0CCFF77E000BFCA
:102310000010014000380240000402401004002078
:10232000406402407C71000800440040000C024000
:10233000700400208860024000480040D004002063
:10234000286002407B681B682F4A934257D10023C4
:10235000FB602E4A2D4B5B6C43F0200353642B4BE8
:102360005B6C03F02003FB60FB684FF48443FB616C
:1023700002233B6201237B620323BB620823FB62CF
:1023800007F11C031946224802F06EFB214B224A3A
:102390001A60204B4FF020625A601E4B00229A6058
:1023A0001C4B0022DA601B4B4FF480621A61194B00
:1023B00000225A61174B00229A61164B0022DA6103
:1023C000144B00221A62134B00225A62114801F08A
:1023D000ADFF0346002B04D04FF49A710F4800F074
:1023E00099FB7B680B4A5A630A4A7B689363002215
:1023F0000021472001F03AFF472001F053FF00BFC2
:102400003037BD4680BD00BF001401400038024097
:102410000018024030050020286402407C7100084A
:1024200090B587B000AF87ED050AC7ED040A87EDC8
:10243000031AC7ED021A7869FEF74CF81FA3D3E917
:102440000023FEF79BF803460C4618462146FEF78C
:10245000A7FA03461CB23869FEF73CF817A3D3E984
:102460000023FEF78BF802460B4610461946FEF78E
:1024700097FA034619B2D7ED037A9FED0F7A67EE0C
:10248000877AFDEEE77AC7ED017ABB881AB2D7EDFD
:10249000027A9FED097A67EE877AFDEEE77AC7ED5B
:1024A000017ABB881BB2204600F0D2F800BF1C376F
:1024B000BD4690BDAFF30080000000009A99999945
:1024C0009999B93F80B58CB000AF786000233B622A
:1024D00001237B620023BB600023FB6000233B6180
:1024E00000237B610023BB610123BB620E23FB62DF
:1024F0007B68104A934207D10023FB617B680E4A38
:102500001A637B680D4A5A637B680D4A934207D170
:102510000E23FB617B680B4A1A637B680A4A5A6385
:1025200007F108031946786800F0EAFE00BF30376B
:10253000BD4680BD24000020A0060020BC0600206F
:1025400068000020E0060020FC06002080B582B074
:1025500000AF78607B68254A93423BD17B685B6B18
:102560009B68002B2ED17B685B6B1B68A3F2012359
:10257000032B27D801A252F823F000BF8D250008B5
:102580009B250008A9250008B72500087B685B6B20
:102590001946174800F036F814E07B685B6B194663
:1025A000144800F02FF80DE07B685B6B1946124869
:1025B00000F028F806E07B685B6B19460F4800F0D6
:1025C00021F800BF094B1B68084A1268526942F0A3
:1025D00002025A610021054801F00AF90021084869
:1025E00001F006F900BF0837BD4680BD2400002079
:1025F000A0050020D8050020100600204806002075
:102600006800002080B483B000AF786039607B68D8
:102610005B881AB27B689A803B689B7D1B021AB26A
:102620003B68DB7D1BB213431AB27B681A803B68A0
:102630001B7D1B021AB23B685B7D1BB213431AB2AF
:102640007B685A8000BF0C37BD465DF8047B70473D
:1026500090B585B000AF0446084611461A46234699
:10266000FB800346BB800B467B8013463B8007F113
:10267000080300221A605A60B7F906301B121BB219
:10268000DBB23B72FB88DBB27B72B7F904301B1202
:102690001BB2DBB2BB72BB88DBB2FB72B7F9023094
:1026A0001B121BB2DBB23B737B88DBB27B73B7F9C7
:1026B00000301B121BB2DBB2BB733B88DBB2FB7377
:1026C00007F108034FF400721946034800F006F8BA
:1026D00000BF1437BD4690BD2400002080B586B0F1
:1026E00000AFF860B9607A600023FB750023FB75CA
:1026F0000CE0FB681A6BFB7DF97DB8680144097832
:1027000013440A461A75FB7D0133FB75FB7D072BCD
:10271000EFD9FB681B6B7A681A60FB681B6B0022A1
:102720009A60FB681B6B0022DA60FB681B6B082257
:102730001A610A21F86800F0B1FE00BF1837BD46E3
:1027400080BD00BF80B483B000AF0346FB71FB794E
:10275000032B1BD801A252F823F000BF6D270008FD
:10276000752700087D270008852700080A4B1B886D
:102770001BB20BE0094B1B881BB207E0084B1B8800
:102780001BB203E0074B1B881BB2FFE718460C3750
:10279000BD465DF8047B7047A0050020D8050020E9
:1027A000100600204806002090B52DED028B89B060
:1027B00000AF786007F1080300221A605A609A603F
:1027C000DA600023FB6127E04E4AFB6932F91330DF
:1027D00007EE903AF8EEE77AFB699B0007F12002DA
:1027E0001344183BC3ED007AFB699B0007F12002FC
:1027F0001344183B93ED007A434BD3ED007A67EE18
:10280000277AFB699B0007F120021344183BC3EDB4
:10281000007AFB690133FB61FB69032BD4DD0023E4
:10282000BB614FE0BB69342202FB03F37A68D41822
:10283000BB699B0007F120021344183B93ED008A0B
:10284000BB69DBB21846FFF77DFF034607EE903AFF
:10285000F8EEE77AF0EE670AB0EE480A204600F09C
:1028600013FBF0EE407A294ABB699B001344C3ED89
:10287000007A264ABB699B001344D3ED007A9FED92
:10288000247AF4EEC77AF1EE10FA05DD1F4ABB692F
:102890009B0013441F4A1A601C4ABB699B001344E7
:1028A000D3ED007A9FED1C7AF4EEC77AF1EE10FAC0
:1028B00005D5164ABB699B001344184A1A60BB69C8
:1028C0000133BB61BB69032BACDD104BD3ED007A48
:1028D0000E4B93ED017A0D4BD3ED026A0B4B93ED4A
:1028E000036AF0EE461AB0EE661AF0EE470AB0EE52
:1028F000670AFFF795FD00BF2437BD46BDEC028B8C
:1029000090BD00BF48070020040000209006002072
:1029100000F0FF4600F0FF4600F0FFC600F0FFC6E3
:1029200080B5B6B000AF00F06DFB00F06BF8FEF7BD
:10293000BFF9FEF76FF9FEF75BF8FFF713FBFEF741
:10294000B9FAFFF76DFBFFF799FBFEF78BF8FFF77E
:1029500035F8FEF7EBFEFEF75FFFFEF7B9FFFFF776
:10296000A7F8FFF74BF9FFF72DFB0023C7F8D4308A
:102970001AE03A1DD7F8D430342101FB03F3134495
:10298000DFED1B2A9FED1B2ADFED1B1AB3EE041AA5
:10299000F7EE000AB3EE040A184600F039FAD7F849
:1029A000D4300133C7F8D430D7F8D430032BE0DD6E
:1029B00000F0B6F81148FFF785FD00210F4800F040
:1029C00017FF0F4B1B889BB218460D4B5B889BB2C1
:1029D00019460B4B9B889BB21A4600F033F93B1DFE
:1029E0001846FFF7E1FE012000F048FBE9E700BFD1
:1029F000000000006666663F0024F44824000020C2
:102A00003407002080B594B000AF0023BB60344A87
:102A1000334B1B6C43F080531364314B1B6C03F03E
:102A20008053BB60BB6800237B602E4A2D4B1B6824
:102A300043F4404313602B4B1B6803F440437B601B
:102A40007B6801233B624FF480337B620223BB63CC
:102A50004FF48003FB6306233B64A8237B640223BB
:102A6000BB640423FB6407F12003184602F0E4F979
:102A70000346002B03D0A8211B4800F04BF80F237E
:102A8000FB6002233B6100237B614FF4A053BB61D9
:102A90004FF48053FB6107F10C030521184602F047
:102AA00025FC0346002B03D0B5210F4800F032F877
:102AB00002F0ACFD02460D4BA3FB02239B09184616
:102AC00001F0FEFB042001F007FC002200214FF082
:102AD000FF3001F0CBFB00BF5037BD4680BD00BFCB
:102AE0000038024000700040B8710008D34D6210F9
:102AF00080B582B000AF78607B681B68044A93425F
:102B000001D100F0A1FA00BF0837BD4680BD00BF6B
:102B10000010004080B483B000AF78603960FEE7F9
:102B200080B500AF104B4FF480621A800E4B4FF40B
:102B300080625A800C4B4FF480629A800A4B4FF4AB
:102B40008062DA80094803F0DDFB084B1B68074A06
:102B50001268D26842F01002DA6012220449034877
:102B600003F01EFC00BF80BD3407002010030020CE
:102B70002007002080B400AF304B1B781AB22F4BD7
:102B80005B781B021BB213431BB29BB2C3F30A0355
:102B90009AB22B4B1A80294B5B78DB08DBB21AB256
:102BA000264B9B785B011BB213431BB29BB2C3F352
:102BB0000A039AB2224B5A80204B9B789B09DBB2C6
:102BC0001AB21E4BDB789B001BB213431BB29AB2A6
:102BD0001A4B1B799BB29B029BB213439BB2C3F36C
:102BE0000A039AB2164B9A80144B1B795B08DBB22E
:102BF0001AB2124B5B79DB011BB213431BB29BB2BF
:102C0000C3F30A039AB20E4BDA800C4B5B791B09B3
:102C1000DBB29B10DBB203F00303DAB2084B1A728B
:102C2000064B5B791B09DBB203F00303DAB2044BFA
:102C30005A7200BFBD465DF8047B70472007002034
:102C40003407002080B588B000AFF860B9607A60C2
:102C5000FB6807EE903AF8EEE77A9FED4D2ADFED3C
:102C60004D1A9FED4D1ADFED4D0AB0EE670A00F0E8
:102C7000A1F8F0EE407AFDEEE77AC7ED007A3B88E6
:102C8000FB83BB6807EE903AF8EEE77A9FED402AA7
:102C9000DFED401A9FED401ADFED400AB0EE670A03
:102CA00000F088F8F0EE407AFDEEE77AC7ED007AA2
:102CB0003B88BB837B6807EE903AF8EEE77A9FED9E
:102CC000342ADFED341A9FED341ADFED340AB0EE0A
:102CD000670A00F06FF8F0EE407AFDEEE77AC7ED94
:102CE000007A3B887B8300237B61BA8BFB8BD31AF2
:102CF0009AB27B8B13449AB27B699BB213449BB20A
:102D00001AB2274B1A80FA8BBB8B13449AB27B8B77
:102D100013449AB27B699BB213449BB21AB2214B03
:102D20001A80FA8BBB8BD31A9AB27B8B13449AB25C
:102D30007B699BB213449BB21AB21B4B1A80FB8B6C
:102D40005B429AB2BB8BD31A9AB27B8B13449AB272
:102D50007B699BB213449BB21AB2144B1A80104B7E
:102D6000B3F90020124B1A800E4BB3F90020104B20
:102D70005A800D4BB3F900200D4B9A800B4BB3F9E1
:102D800000200B4BDA8000BF2037BD4680BD00BF5E
:102D900000FEFF46000000C70080D2440000B6439A
:102DA000400700204207002044070020460700207B
:102DB0004807002080B487B000AF87ED050AC7ED53
:102DC000040A87ED031AC7ED021A87ED012A97ED71
:102DD000057AD7ED047A37EE677AD7ED016AD7ED39
:102DE000027A76EEE77A67EE276A97ED037AD7EDF7
:102DF000047A77EE677A86EEA77AD7ED027A77EED5
:102E0000277AB0EE670A1C37BD465DF8047B704731
:102E100080B489B000AFF86187ED060AC7ED050AF6
:102E200087ED041AC7ED031A87ED022AC7ED012AC0
:102E3000FB69BA691A60FB697A695A60FB693A6989
:102E40009A60FB694FF00002DA60FB694FF0000204
:102E50001A61FB694FF000025A61FB694FF00002F2
:102E60009A61FB694FF00002DA61FB69BA681A6285
:102E7000FB69FA685A62FB697A689A6200BF243774
:102E8000BD465DF8047B704780B485B000AFF86044
:102E900087ED020AC7ED010AFB687A68DA62FB680F
:102EA000BA681A63FB6893ED0C7AFB68D3ED0B7A72
:102EB00077EE677AFB68C3ED057AFB6893ED057AD8
:102EC000FB68D3ED037A77EE677AFB68C3ED077A88
:102ED000FB6893ED067AFB68D3ED057A77EE277AE7
:102EE000FB68C3ED067AFB6893ED067AFB68D3EDC9
:102EF0000A7AB4EEE77AF1EE10FA02DDFB689B6A1B
:102F000001E0FB689B69FA689361FB6893ED067AC0
:102F1000FB68D3ED0A7AF1EE677AB4EEE77AF1EE68
:102F200010FA05D5FB68D3ED0A7AF1EE677A02E074
:102F3000FB68D3ED067AFB68C3ED067AFB6893ED78
:102F4000057AFB68D3ED007A27EE277AFB68D3ED8C
:102F5000066AFB68D3ED017A66EEA77A37EE277A28
:102F6000FB68D3ED076AFB68D3ED027A66EEA77AB9
:102F700077EE277AFB68C3ED047AFB6893ED047A59
:102F8000FB68D3ED097AB4EEE77AF1EE10FA02DDD0
:102F9000FB685B6A01E0FB681B69FA681361FB6808
:102FA00093ED047AFB68D3ED097AF1EE677AB4EE1B
:102FB000E77AF1EE10FA05D5FB68D3ED097AF1EE68
:102FC000677A02E0FB68D3ED047AFB68C3ED047A0C
:102FD000FB685A69FB68DA60FB6893ED067AFB6868
:102FE000D3ED087A67EE277AFB68C3ED067AFB68B3
:102FF0001B6907EE903AB0EE670A1437BD465DF8DC
:10300000047B704780B500AF0E4A0E4B1B6843F43B
:10301000007313600B4A0B4B1B6843F4806313600F
:10302000084A084B1B6843F480731360032001F0C7
:1030300011F90020FEF714F8FDF7E0FF0023184611
:1030400080BD00BF003C024080B400AF044B1B6851
:103050000133034A136000BFBD465DF8047B70472F
:103060005007002080B400AF034B1B681846BD46D4
:103070005DF8047B704700BF5007002080B584B026
:1030800000AF7860FFF7EEFFB8607B68FB60FB681D
:10309000B3F1FF3F02D0FB680133FB6000BFFFF7D5
:1030A000E1FF0246BB68D21AFB689A42F7D300BF21
:1030B0001037BD4680BD00BF80B584B000AF7860DA
:1030C0000023FB600023BB607B68002B01D1012340
:1030D00012E17B6893F83C30DBB2002B06D17B68B1
:1030E000002283F83D207868FDF7F8FC7B68022217
:1030F00083F83C207B681B687A681268126822F0AB
:1031000002021A607B681B687A681268126842F0D3
:1031100001021A60FFF7A6FFB86010E0FFF7A2FFF8
:103120000246BB68D31A0A2B09D97B68032283F8AD
:103130003C207B68002283F83D200323DCE07B6891
:103140001B685B6803F00103002BE7D07B681B68FA
:103150005B6803F00103002B00F0BD807B689B6976
:10316000012B08D17B681B687A681268126842F0EC
:1031700080021A6007E07B681B687A681268126830
:1031800022F080021A607B68DB69012B08D17B6822
:103190001B687A681268126842F040021A6007E001
:1031A0007B681B687A681268126822F040021A6015
:1031B0007B681B6A012B08D17B681B687A681268E0
:1031C000126842F020021A6007E07B681B687A6888
:1031D0001268126822F020021A607B685B6A012B79
:1031E00008D17B681B687A681268126842F0100286
:1031F0001A6007E07B681B687A681268126822F020
:1032000010021A607B689B6A012B08D17B681B68DF
:103210007A681268126842F008021A6007E07B6858
:103220001B687A681268126822F008021A607B68CC
:10323000DB6A012B08D17B681B687A681268126808
:1032400042F004021A6007E07B681B687A68126823
:10325000126822F004021A607B681B687A68916821
:103260007A68D26811437A68126911437A685269A0
:1032700011437A685268013A0A43DA617B681B6835
:103280007A681268126822F001021A60FFF7EAFEFB
:10329000B86010E0FFF7E6FE0246BB68D31A0A2BBF
:1032A00009D97B68032283F83C207B68002283F8DD
:1032B0003D20032320E07B681B685B6803F001036B
:1032C000002BE7D17B681B685B6803F00103002BD0
:1032D00001D10123FB60FB68012B08D17B68002230
:1032E0001A647B68012283F83C20002304E07B6899
:1032F000042283F83C20012318461037BD4680BDC8
:1033000080B485B000AF786039600023FB603B6813
:103310005B69012202FA03F3FB605F4BBB60BB6891
:10332000D3F8003243F00102BB68C3F80022BB6847
:10333000D3F8003223F47C52BB68C3F80022BB6888
:10334000D3F800223B685B6A1B021A43BB68C3F8D0
:103350000022BB68D3F81C22FB68DB431A40BB6821
:10336000C3F81C223B68DB69002B23D1BB68D3F870
:103370000C22FB68DB431A40BB68C3F80C223B6895
:103380005A693B68DB6819043B685B689BB2194368
:10339000BB68483243F832103B685B693A68926810
:1033A00011043A68126892B20A43B9684833DB00E4
:1033B0000B445A603B68DB69012B22D1BB68D3F810
:1033C0000C22FB681A43BB68C3F80C223B685A699D
:1033D0003B681B6819043B685B689BB21943BB6878
:1033E000483243F832103B685B693A6892681104CE
:1033F0003A68D26892B20A43B9684833DB000B449A
:103400005A603B689B69002B09D1BB68D3F8042242
:10341000FB68DB431A40BB68C3F8042207E0BB68C3
:10342000D3F80422FB681A43BB68C3F804223B6844
:103430001B69002B08D1BB68D3F81422FB68DB435F
:103440001A40BB68C3F814223B681B69012B07D1E3
:10345000BB68D3F81422FB681A43BB68C3F8142274
:103460003B681B6A012B07D1BB68D3F81C22FB68A1
:103470001A43BB68C3F81C22BB68D3F8003223F0A0
:103480000102BB68C3F80022002318461437BD466A
:103490005DF8047B704700BF0064004080B584B0D5
:1034A00000AF786039600423FB600023BB607B6859
:1034B0001B689B6803F08063002B0ED17B681B6840
:1034C0009B6803F00063002B07D17B681B689B6837
:1034D00003F08053002B00F07B817B6893F83D3034
:1034E000012B01D1022378E17B68012283F83D2082
:1034F0007B6893F83C30DBB2322B08D0622B0BD0C8
:10350000222B0ED17B68422283F83C200EE07B68A0
:10351000522283F83C2009E07B68722283F83C2029
:1035200004E07B68122283F83C2000BF7B681B68A4
:103530009B6803F08063002B02D00023FB600BE04C
:103540007B681B689B6803F00063002B02D001239B
:10355000FB6001E00223FB607B6819687B681A68E6
:10356000FB6818331B0113441B6803F00102FB685E
:1035700018331B010B441A607B681B6B9B68002B84
:1035800017D17B6819687B681A68FB6818331B01C0
:1035900013441A687B681B6B1B6858057B681B6BA0
:1035A000DB6803431A43FB6818331B010B441A60A2
:1035B0001AE07B6819687B681A68FB6818331B017E
:1035C00013441A687B681B6B5B68D8007B681B6BB5
:1035D0009B6818437B681B6BDB6803431A43FB68DB
:1035E00018331B010B441A607B681B6B7A68126BE3
:1035F000126902F00F021A617B6819687B681A6809
:10360000FB6818331B01134404331B6823F00F02BB
:10361000FB6818331B010B4404331A607B6819687C
:103620007B681A68FB6818331B01134404331A685B
:103630007B681B6B1B691A43FB6818331B010B4427
:1036400004331A607B6819687B681B6BDB7D1A0684
:103650007B681B6B9B7D1B041A437B681B6B5B7D2C
:103660001B0213437A68126B127D1A43FB681B011D
:103670000B4403F5C4731A607B6819687B681B6B85
:10368000DB7E1A067B681B6B9B7E1B041A437B68E0
:103690001B6B5B7E1B0213437A68126B127E1A430C
:1036A000FB681B010B4403F5C6731A607B6819683D
:1036B0007B681A68FB6818331B0113441B6843F0CE
:1036C0000102FB6818331B010B441A60FFF7CAFCA8
:1036D000B8602EE03B68B3F1FF3F2AD03B68002B77
:1036E00007D0FFF7BFFC0246BB68D21A3B689A427C
:1036F0001FD97B68032283F83C20FB68002B04D190
:103700007B681B6880229A600DE0FB68012B05D165
:103710007B681B684FF400429A6004E07B681B687A
:103720004FF400029A607B68002283F83D20032357
:1037300053E0FB68002B0BD17B681B689A68294B10
:103740001340284A934214BF01230023DBB219E03F
:10375000FB68012B0BD17B681B689A68224B1340D6
:10376000214A934214BF01230023DBB20AE07B68A5
:103770001B689A681D4B13401C4A934214BF0123D7
:103780000023DBB2002BA5D17B6893F83C30DBB281
:10379000522B08D0722B0BD0422B0ED17B682222E9
:1037A00083F83C200EE07B68322283F83C2009E05D
:1037B0007B68622283F83C2004E07B68012283F866
:1037C0003C2000BF7B68002283F83D20002304E0FA
:1037D0007B68042283F83C20012318461037BD463D
:1037E00080BD00BF030000040003000800000310B8
:1037F00080B483B000AF78600B46FB70FB78002B81
:1038000019D17B6893F83C30DBB2222B11D07B6856
:1038100093F83C30DBB2422B0BD07B6893F83C3002
:10382000DBB2622B05D07B6893F83C30DBB2722BA5
:1038300001D102238DE0FB78012B19D17B6893F82D
:103840003C30DBB2322B11D07B6893F83C30DBB2DA
:10385000522B0BD07B6893F83C30DBB2622B05D047
:103860007B6893F83C30DBB2722B01D1022370E00D
:103870007B6893F83D30012B01D1022369E07B681E
:10388000012283F83D20FB78002B1ED17B6893F842
:103890003C30DBB2322B08D0522B0BD0122B0ED186
:1038A0007B68422283F83C202DE07B68622283F80B
:1038B0003C2028E07B68722283F83C2023E07B6870
:1038C000222283F83C2000BF1DE07B6893F83C3047
:1038D000DBB2222B08D0422B0BD0122B0ED17B68EF
:1038E000522283F83C200EE07B68622283F83C2061
:1038F00009E07B68722283F83C2004E07B68322276
:1039000083F83C2000BF7B6800221A647B681A6839
:103910007B681B685B6943F40F4343F00103536109
:103920007B68002283F83D20FB78002B08D17B6860
:103930001B687A681268526942F00A025A6107E00D
:103940007B681B687A681268526942F050025A61BB
:10395000002318460C37BD465DF8047B704700BF56
:1039600080B586B000AF786000233B610023FB6028
:103970000023BB6000237B617B681B68DB6803F06E
:103980001003002B14BF01230023DBB23B617B68D3
:103990001B685B6903F00803002B14BF012300239D
:1039A000DBB2FB603B69002B0AD0FB68002B07D021
:1039B0007B6943F400737B617B681B681022DA60CB
:1039C0007B681B681B6903F01003002B14BF0123E5
:1039D0000023DBB23B617B681B685B6903F040033B
:1039E000002B14BF01230023DBB2FB603B69002BDB
:1039F0000AD0FB68002B07D07B6943F480637B61AE
:103A00007B681B6810221A617B681B685B6903F086
:103A10000103002B6CD07B681B689A682B4B13400A
:103A20002A4A93420CBF01230023DBB23B617B682F
:103A30001B689A68264B1340254A93420CBF01230A
:103A40000023DBB2FB607B681B689A68214B134044
:103A5000204A93420CBF01230023DBB2BB603B69C9
:103A6000002B05D1FB68002B02D1BB68002B3FD097
:103A70007B681B689B6803F00203002B14BF0123C3
:103A80000023DBB23B617B681B689B6803F4007317
:103A9000002B14BF01230023DBB2FB607B681B6893
:103AA0009B6803F40033002B14BF01230023DBB217
:103AB000BB603B69002B05D1FB68002B02D1BB68C2
:103AC000002B09D0786800F087F909E003000004B2
:103AD00000030008000003107B6943F400637B616E
:103AE0007B681A687B681B689968934B0B439360EB
:103AF0007B681B68DB68DBB203F003033B617B6818
:103B00001B685B6903F00203002B14BF0123002331
:103B1000DBB2FB603B69002B06D0FB68002B03D0B7
:103B20000021786800F098F97B681B681B69DBB29C
:103B300003F003033B617B681B685B6903F01003C0
:103B4000002B14BF01230023DBB2FB603B69002B79
:103B500006D0FB68002B03D00121786800F07CF9C7
:103B60007B681A6C7B691A437B681A647B681B68E4
:103B70009B6903F00103002B14BF01230023DBB278
:103B80003B617B681B685B6903F48073002B14BF87
:103B900001230023DBB2FB607B681B685B6903F4D5
:103BA0000043002B14BF01230023DBB2BB603B6941
:103BB000002B0BD0FB68002B08D0BB68002B05D076
:103BC0007B681B6C43F001027B681A647B681B688E
:103BD0009B6903F00203002B14BF01230023DBB217
:103BE0003B617B681B685B6903F40073002B14BFA7
:103BF00001230023DBB2FB607B681B685B6903F475
:103C00000043002B14BF01230023DBB2BB603B69E0
:103C1000002B0BD0FB68002B08D0BB68002B05D015
:103C20007B681B6C43F002027B681A647B681B682C
:103C30009B6903F00403002B14BF01230023DBB2B4
:103C40003B617B681B685B6903F48063002B14BFD6
:103C500001230023DBB2FB607B681B685B6903F414
:103C60000043002B14BF01230023DBB2BB603B6980
:103C7000002B0BD0FB68002B08D0BB68002B05D0B5
:103C80007B681B6C43F004027B681A647B681B68CA
:103C90009B6903F07003002B0CBF01230023DBB2F0
:103CA0003B617B681B685B6903F40063002B14BFF6
:103CB00001230023DBB2FB607B681B685B6903F4B4
:103CC0000043002B14BF01230023DBB2BB603B6920
:103CD000002B50D1FB68002B4DD0BB68002B4AD085
:103CE0007B681B689B6903F070033B613B69302B69
:103CF0001BD0302B04D8102B09D0202B0ED032E053
:103D0000502B22D0602B27D0402B17D02BE07B6884
:103D10001B6C43F008027B681A6424E07B681B6C10
:103D200043F010027B681A641DE07B681B6C43F053
:103D300020027B681A6416E0190501007B681B6C81
:103D400043F040027B681A640DE07B681B6C43F013
:103D500080027B681A6406E07B681B6C43F4807207
:103D60007B681A6400BF7B681B687A681268926976
:103D700022F070029A617B681B6C002B14D07B6868
:103D80001B6804225A607B68012283F83C207B6810
:103D90001A687B681B685B6923F40F4323F05B039D
:103DA0005361786800F00EF800BF1837BD4680BD3B
:103DB00080B483B000AF786000BF0C37BD465DF8BB
:103DC000047B704780B483B000AF786000BF0C37CD
:103DD000BD465DF8047B704780B582B000AF786067
:103DE0007B681B687A681268526922F001025A6186
:103DF0007B6893F83C30DBB2122B07D17B681B68E1
:103E00007A681268526922F40F425A617B6893F80B
:103E10003C30DBB2522B08D0722B0BD0422B0ED190
:103E20007B68222283F83C200EE07B68322283F8F4
:103E30003C2009E07B68622283F83C2004E07B6838
:103E4000012283F83C2000BF7868FFF7B1FF002310
:103E500018460837BD4680BD80B584B000AF786095
:103E60000B46FB700023BB600023FB60FB78002B3C
:103E700003D17B685B6BFB6002E07B689B6BFB6044
:103E80007B681A68FB781B331B0113441B6803F023
:103E90000402FB689A60FB689B68002B0AD17B6870
:103EA0001A68FB781B331B0113441B685A0DFB680F
:103EB0001A6009E07B681A68FB781B331B01134406
:103EC0001B68DA08FB685A607B681A68FB781B334A
:103ED0001B0113441B6803F00202FB68DA607B6875
:103EE0001A68FB781B331B01134404331B6803F06F
:103EF0000F02FB681A61FA78FB681A627B681A681D
:103F0000FB781B331B01134404331B681B0ADAB212
:103F1000FB68DA617B681A68FB781B01134403F5C0
:103F2000DC731B68DAB2FB681A757B681A68FB7869
:103F30001B01134403F5DC731B681B0ADAB2FB6830
:103F40005A757B681A68FB781B01134403F5DC7310
:103F50001B681B0CDAB2FB689A757B681A68FB78E1
:103F60001B01134403F5DC731B681B0EDAB2FB68FC
:103F7000DA757B681A68FB781B01134403F5DE735E
:103F80001B68DAB2FB681A767B681A68FB781B013B
:103F9000134403F5DE731B681B0ADAB2FB685A761A
:103FA0007B681A68FB781B01134403F5DE731B68FA
:103FB0001B0CDAB2FB689A767B681A68FB781B01E7
:103FC000134403F5DE731B681B0EDAB2FB68DA7666
:103FD000FB78002B0CD17B681B682022DA607B68A1
:103FE0001B687A681268526922F00A025A610BE073
:103FF0007B681B6820221A617B681B687A681268DC
:10400000526922F050025A617B6893F83C30DBB26F
:10401000BB60BB68222B02D0BB68322B07D17B6808
:104020001B687A681268526922F40F425A61FB7861
:10403000002B1ED17B6893F83C30DBB2622B08D09A
:10404000722B0BD0422B0ED17B68122283F83C20BE
:104050002DE07B68322283F83C2028E07B685222E6
:1040600083F83C2023E07B68012283F83C2000BFDA
:104070001DE07B6893F83C30DBB2622B08D0722BDA
:104080000BD0522B0ED17B68122283F83C200EE01D
:104090007B68222283F83C2009E07B68422283F877
:1040A0003C2004E07B68012283F83C2000BF786854
:1040B000FEF74CFA002318461037BD4680BD00BFFE
:1040C00080B485B000AF78607B6803F00703FB60C5
:1040D0000C4BDB68BB60BA684FF6FF031340BB6054
:1040E000FB681A02BB68134343F0BF6343F4003319
:1040F000BB60044ABB68D36000BF1437BD465DF89F
:10410000047B704700ED00E080B400AF044BDB6837
:1041100003F4E0631B0A1846BD465DF8047B704754
:1041200000ED00E080B483B000AF0346FB710949A5
:1041300097F907305B09FA7902F01F02012000FAB3
:1041400002F241F8232000BF0C37BD465DF8047B26
:10415000704700BF00E100E080B483B000AF0346C9
:104160003960FB7197F90730002B0BDA0D49FB79A9
:1041700003F00F03043B3A68D2B21201D2B20B44EF
:104180001A7609E0084997F907303A68D2B2120165
:10419000D2B20B4483F8002300BF0C37BD465DF854
:1041A000047B704700ED00E000E100E080B489B0DE
:1041B00000AFF860B9607A60FB6803F00703FB6149
:1041C000FB69C3F10703042B28BF0423BB61FB6910
:1041D0000433062B02D9FB69033B00E000237B611B
:1041E0000122BB6902FA03F35A1EBB681A407B69BD
:1041F0009A4001217B6901FA03F3591E7B680B4049
:10420000134318462437BD465DF8047B704700BF52
:1042100080B582B000AF78607B68013BB3F1807FEE
:1042200001D301230FE00A4A7B68013B53600F2151
:104230004FF0FF30FFF790FF054B00229A60044BD0
:1042400007221A60002318460837BD4680BD00BF0C
:1042500010E000E080B582B000AF78607868FFF7CA
:104260002FFF00BF0837BD4680BD00BF80B586B0B8
:1042700000AF0346B9607A60FB7300237B61FFF7F0
:1042800043FF78617A68B9687869FFF78FFF024663
:1042900097F90F3011461846FFF75EFF00BF183739
:1042A000BD4680BD80B582B000AF0346FB7197F973
:1042B00007301846FFF736FF00BF0837BD4680BD00
:1042C00080B582B000AF78607868FFF7A1FF034641
:1042D00018460837BD4680BD80B483B000AF786013
:1042E0007B68042B06D1094A084B1B6843F0040382
:1042F000136005E0054A054B1B6823F004031360B7
:1043000000BF0C37BD465DF8047B704710E000E04D
:1043100080B500AF00F002F800BF80BD80B400AFF0
:1043200000BFBD465DF8047B704700BF80B586B016
:1043300000AF786000237B61FEF794FE38617B68F4
:10434000002B01D1012399E07B68002283F83420FF
:104350007B68022283F835207B681B687A681268C4
:10436000126822F001021A600FE0FEF77BFE02469F
:104370003B69D31A052B08D97B6820225A657B68D4
:10438000032283F83520032378E07B681B681B68D1
:1043900003F00103002BE8D17B681B681B687B617D
:1043A0007A69384B13407B617B685A687B689B68ED
:1043B0001A437B68DB681A437B681B691A437B6876
:1043C0005B691A437B689B691A437B68DB691A4304
:1043D0007B681B6A13437A6913437B617B685B6A62
:1043E000042B07D17B68DA6A7B681B6B13437A69FD
:1043F00013437B617B681B687A691A607B681B6862
:104400005B697B617B6923F007037B617B685B6A87
:104410007A6913437B617B685B6A042B17D17B68E5
:104420009B6A7A6913437B617B68DB6A002B0ED041
:10443000786800F09FFA0346002B08D07B68402282
:104440005A657B68012283F83520012316E07B68DA
:104450001B687A695A61786800F056FA0346FB6077
:104460007B68DB6D3F229A40FB689A607B68002284
:104470005A657B68012283F83520002318461837D7
:10448000BD4680BD3F8010F080B586B000AFF860BB
:10449000B9607A603B600023FB75FB689B6D3B61F4
:1044A000FB6893F83430012B01D1022348E0FB680C
:1044B000012283F83420FB6893F83530DBB2012BFE
:1044C00037D1FB68022283F83520FB6800225A6549
:1044D0003B687A68B968F86800F0E8F9FB68DB6D5A
:1044E0003F229A403B699A60FB681B68FA68126831
:1044F000126842F016021A60FB681B68FA681268BC
:10450000526942F080025A61FB681B6C002B07D095
:10451000FB681B68FA681268126842F008021A60A9
:10452000FB681B68FA681268126842F001021A60A0
:1045300005E0FB68002283F834200223FB75FB7D35
:1045400018461837BD4680BD80B483B000AF786090
:104550007B6893F83530DBB2022B04D07B68802275
:104560005A6501230CE07B68052283F835207B68BF
:104570001B687A681268126822F001021A60002330
:1045800018460C37BD465DF8047B704780B586B091
:1045900000AF78600023BB60934B1B68934AA2FB7B
:1045A00003239B0A7B617B689B6D3B613B691B68B6
:1045B000FB607B68DB6D08229A40FB681340002B90
:1045C0001AD07B681B681B6803F00403002B13D010
:1045D0007B681B687A681268126822F004021A600D
:1045E0007B68DB6D08229A403B699A607B685B6D53
:1045F00043F001027B685A657B68DB6D7C4A9A4018
:10460000FB681340002B12D07B681B685B6903F0CA
:104610008003002B0BD07B68DB6D754A9A403B69A9
:104620009A607B685B6D43F002027B685A657B6829
:10463000DB6D704A9A40FB681340002B12D07B68F8
:104640001B681B6803F00203002B0BD07B68DB6D3B
:10465000684A9A403B699A607B685B6D43F004024C
:104660007B685A657B68DB6D10229A40FB681340BB
:10467000002B43D07B681B681B6803F00803002BEA
:104680003CD07B68DB6D10229A403B699A607B6866
:104690001B681B6803F48023002B18D07B681B6801
:1046A0001B6803F40023002B08D17B681B6C002BD4
:1046B00024D07B681B6C786898471FE07B689B6CF4
:1046C000002B1BD07B689B6C7868984716E07B6852
:1046D0001B681B6803F48073002B07D17B681B6881
:1046E0007A681268126822F008021A607B681B6CF4
:1046F000002B03D07B681B6C786898477B68DB6D68
:1047000020229A40FB681340002B00F094807B68C5
:104710001B681B6803F01003002B00F08C807B6883
:10472000DB6D20229A403B699A607B6893F83530B4
:10473000DBB2052B37D17B681B687A681268126878
:1047400022F016021A607B681B687A681268526948
:1047500022F080025A617B681B6C002B03D17B68BE
:104760009B6C002B07D07B681B687A681268126804
:1047700022F008021A607B68DB6D3F229A403B6999
:104780009A607B68002283F834207B68012283F8DA
:1047900035207B681B6D002B00F083807B681B6DD0
:1047A000786898477DE07B681B681B6803F480236A
:1047B000002B21D07B681B681B6803F40023002BAF
:1047C00008D17B685B6C002B35D07B685B6C7868AC
:1047D000984730E07B68DB6B002B2CD07B68DB6B71
:1047E0007868984727E000BF00000020B5814E1B85
:1047F00001008000040080007B681B681B6803F4D4
:104800008073002B0FD17B681B687A68126812686E
:1048100022F010021A607B68002283F834207B6843
:10482000012283F835207B68DB6B002B03D07B688B
:10483000DB6B786898477B685B6D002B32D07B68B8
:104840005B6D03F00103002B22D07B68052283F807
:1048500035207B681B687A681268126822F00102B2
:104860001A60BB680133BB607A69934207D87B68E2
:104870001B681B6803F00103002BF2D100E000BFAE
:104880007B68002283F834207B68012283F835207E
:104890007B68DB6C002B05D07B68DB6C7868984705
:1048A00000E000BF1837BD4680BD00BF80B485B0B2
:1048B00000AFF860B9607A603B60FB681B68FA681B
:1048C0001268126822F480221A60FB681B683A683A
:1048D0005A60FB689B68402B08D1FB681B687A68AC
:1048E0009A60FB681B68BA68DA6007E0FB681B68BF
:1048F000BA689A60FB681B687A68DA6000BF143790
:10490000BD465DF8047B704780B485B000AF786029
:104910007B681B68DBB2103B144AA2FB03231B0914
:10492000FB60134AFB6813441B781A467B68DA6500
:10493000FB68032B09D97B681B6823F47F7323F082
:1049400003031A1D7B689A6507E07B681B6823F4E4
:104950007F7323F003037A6893657B689B6D184629
:104960001437BD465DF8047B704700BFABAAAAAA06
:10497000F071000880B485B000AF78600023FB734D
:104980007B689B6ABB607B689B69002B1FD1BB68FF
:10499000032B55D801A252F823F000BFAD490008FF
:1049A000BF490008AD490008414A00087B68DB6A3E
:1049B00003F08073002B45D00123FB7342E07B683A
:1049C000DB6AB3F1C07F3FD10123FB733CE07B681E
:1049D0009B69B3F5005F21D1BB68032B36D801A2D8
:1049E00052F823F0F5490008FB490008F549000892
:1049F0000D4A00080123FB732FE07B68DB6A03F09C
:104A00008073002B24D00123FB7321E07B68DB6AD9
:104A1000B3F1C07F1ED10123FB731BE0BB68022BE7
:104A200002D9032B03D018E00123FB7315E07B6848
:104A3000DB6A03F08073002B0ED00123FB730BE0C5
:104A400000BF0AE000BF08E000BF06E000BF04E0CE
:104A500000BF02E000BF00E000BFFB7B1846143738
:104A6000BD465DF8047B704780B489B000AF7860C4
:104A7000396000237B6100233B610023BB6100237D
:104A8000FB6177E10122FB6902FA03F37B613B687A
:104A90001A687B6913403B613A697B699A4240F02E
:104AA00066813B685B68022B03D03B685B68122B16
:104AB00023D1FB69DA087B68083253F82230BB61E6
:104AC000FB6903F007039B000F2202FA03F3DB43A9
:104AD000BA691340BB613B681A69FB6903F00703BD
:104AE0009B0002FA03F3BA691343BB61FB69DA085E
:104AF0007B680832B96943F822107B681B68BB6188
:104B0000FB695B00032202FA03F3DB43BA6913403B
:104B1000BB613B685B6803F00302FB695B0002FA60
:104B200003F3BA691343BB617B68BA691A603B68D7
:104B30005B68012B0BD03B685B68022B07D03B689E
:104B40005B68112B03D03B685B68122B30D17B680C
:104B50009B68BB61FB695B00032202FA03F3DB4342
:104B6000BA691340BB613B68DA68FB695B0002FA13
:104B700003F3BA691343BB617B68BA699A607B68C7
:104B80005B68BB610122FB6902FA03F3DB43BA698C
:104B90001340BB613B685B681B0903F00102FB69C2
:104BA00002FA03F3BA691343BB617B68BA695A60BE
:104BB0007B68DB68BB61FB695B00032202FA03F3DD
:104BC000DB43BA691340BB613B689A68FB695B00D1
:104BD00002FA03F3BA691343BB617B68BA69DA600E
:104BE0003B685B6803F08053002B00F0C08000231B
:104BF000FB60654A644B5B6C43F480435364624BD7
:104C00005B6C03F48043FB60FB68604AFB699B08B4
:104C1000023352F82330BB61FB6903F003039B00AE
:104C20000F2202FA03F3DB43BA691340BB617B68CE
:104C3000574A934237D07B68564A934231D07B68BB
:104C4000554A93422BD07B68544A934225D07B68C7
:104C5000534A93421FD07B68524A934219D07B68D3
:104C6000514A934213D07B68504A93420DD07B68DF
:104C70004F4A934207D07B684E4A934201D10923A1
:104C800012E00A2310E008230EE007230CE00623BD
:104C90000AE0052308E0042306E0032304E00223DE
:104CA00002E0012300E00023FA6902F0030292000F
:104CB0009340BA691343BB613449FB699B080233D3
:104CC000BA6941F823203C4B1B68BB613B69DB435D
:104CD000BA691340BB613B685B6803F48033002B07
:104CE00003D0BA693B691343BB61334ABB691360A4
:104CF000314B5B68BB613B69DB43BA691340BB6105
:104D00003B685B6803F40033002B03D0BA693B694E
:104D10001343BB61284ABB695360274B9B68BB6147
:104D20003B69DB43BA691340BB613B685B6803F4D2
:104D30008013002B03D0BA693B691343BB611E4A41
:104D4000BB6993601C4BDB68BB613B69DB43BA69A1
:104D50001340BB613B685B6803F40013002B03D076
:104D6000BA693B691343BB61134ABB69D360FB69F2
:104D70000133FB61FB690F2B7FF684AE00BF243744
:104D8000BD465DF8047B70470038024000380140A2
:104D9000000002400004024000080240000C0240F3
:104DA000001002400014024000180240001C0240A3
:104DB0000020024000240240003C014080B483B047
:104DC00000AF78600B467B8013467B707B78002BAE
:104DD00003D07A887B689A6103E07B881A047B6839
:104DE0009A6100BF0C37BD465DF8047B704700BF79
:104DF00080B582B000AF0346FB80084B5A69FB8840
:104E00001340002B06D0054AFB885361FB881846E7
:104E100000F006F800BF0837BD4680BD003C0140E9
:104E200080B483B000AF0346FB8000BF0C37BD46A3
:104E30005DF8047B704700BF80B58EB000AF78602E
:104E400000237B637B681B6803F00103002B74D095
:104E5000A44B9B6803F00C03042B0BD0A14B9B6865
:104E600003F00C03082B11D19E4B5B6803F4800305
:104E7000002B0BD09B4B1B6803F40033002B5BD043
:104E80007B685B68002B57D1012325E27B685B6858
:104E9000B3F5803F06D1934A924B1B6843F48033AD
:104EA00013601DE07B685B68B3F5A02F0CD18D4AC1
:104EB0008C4B1B6843F4802313608A4A894B1B6820
:104EC00043F4803313600BE0864A864B1B6823F45F
:104ED00080331360834A834B1B6823F48023136061
:104EE0007B685B68002B13D0FEF7BCF8786308E0A2
:104EF000FEF7B8F802467B6BD31A642B01D9032363
:104F0000EAE1784B1B6803F40033002BF0D014E087
:104F1000FEF7A8F8786308E0FEF7A4F802467B6B7A
:104F2000D31A642B01D90323D6E16E4B1B6803F41B
:104F30000033002BF0D100E000BF7B681B6803F05A
:104F40000203002B77D0674B9B6803F00C03002B08
:104F50000BD0644B9B6803F00C03082B26D1614BEC
:104F60005B6803F48003002B20D15E4B1B6803F0C9
:104F70000203002B05D07B68DB68012B01D00123E5
:104F8000AAE15848574B1B6823F0F8027B6819695F
:104F9000F8233B623B6A93FAA3F3FB61FB69B3FA24
:104FA00083F301FA03F31343036044E07B68DB6897
:104FB000002B2AD04C4B01221A60FEF753F878637D
:104FC00008E0FEF74FF802467B6BD31A022B01D99B
:104FD000032381E1434B1B6803F00203002BF0D055
:104FE0004048404B1B6823F0F8027B681969F8239E
:104FF000FB62FB6A93FAA3F3BB61BB69B3FA83F369
:1050000001FA03F31343036015E0374B00221A60E3
:10501000FEF728F8786308E0FEF724F802467B6B79
:10502000D31A022B01D9032356E12E4B1B6803F040
:105030000203002BF0D17B681B6803F00803002BF0
:1050400030D07B685B69002B16D0284B01221A6098
:10505000FEF708F8786308E0FEF704F802467B6B79
:10506000D31A022B01D9032336E11E4B5B6F03F0E9
:105070000203002BF0D015E01C4B00221A60FDF754
:10508000F1FF786308E0FDF7EDFF02467B6BD31A72
:10509000022B01D903231FE1124B5B6F03F00203C4
:1050A000002BF0D17B681B6803F00403002B00F099
:1050B00087800023BB600B4A0A4B1B6C43F0805374
:1050C0001364084B1B6C03F08053BB60BB68084A39
:1050D000074B1B6843F480731360FDF7C3FF7863CD
:1050E00011E000BF0038024000004742800E4742F6
:1050F00000700040FDF7B6FF02467B6BD31A022B0F
:1051000001D90323E8E0764B1B6803F48073002B7E
:10511000F0D07B689B68012B06D1724A714B1B6FE4
:1051200043F0010313671CE07B689B68052B0CD1DF
:105130006C4A6C4B1B6F43F004031367694A694B5D
:105140001B6F43F0010313670BE0664A654B1B6F4F
:1051500023F001031367634A624B1B6F23F00403C0
:1051600013677B689B68002B15D0FDF77BFF786386
:105170000AE0FDF777FF02467B6BD31A41F28832D3
:10518000934201D90323A7E0564B1B6F03F00203A0
:10519000002BEED014E0FDF765FF78630AE0FDF721
:1051A00061FF02467B6BD31A41F28832934201D9E8
:1051B000032391E04B4B1B6F03F00203002BEED156
:1051C0007B689B69002B00F08680464B9B6803F050
:1051D0000C03082B7DD07B689B69022B62D1424B6C
:1051E00000221A60FDF73EFF786308E0FDF73AFF02
:1051F00002467B6BD31A022B01D903236CE0394B97
:105200001B6803F00073002BF0D136487B68DA6925
:105210007B681B6A1A437B68596A47F6C073BB6296
:10522000BB6A93FAA3F3FB60FB68B3FA83F301FA5A
:1052300003F31A437B689B6A5B08591E4FF44033A3
:105240007B627B6A93FAA3F33B613B69B3FA83F316
:1052500001FA03F31A437B68D96A4FF070633B632A
:105260003B6B93FAA3F37B617B69B3FA83F301FA97
:1052700003F3134343601C4B01221A60FDF7F2FE57
:10528000786308E0FDF7EEFE02467B6BD31A022B33
:1052900001D9032320E0134B1B6803F00073002B9C
:1052A000F0D018E0104B00221A60FDF7DBFE7863A7
:1052B00008E0FDF7D7FE02467B6BD31A022B01D91B
:1052C000032309E0074B1B6803F00073002BF0D1A8
:1052D00001E0012300E0002318463837BD4680BDB9
:1052E00000700040003802406000474280B586B040
:1052F00000AF7860396000237B61814B1B6803F04D
:105300000F023B689A420CD27D4B3A68D2B21A70B7
:105310007B4B1B6803F00F023B689A4201D00123CC
:10532000EAE07B681B6803F00203002B08D0754994
:10533000744B9B6823F0F0027B689B6813438B607F
:105340007B681B6803F00103002B00F086807B68FC
:105350005B68012B07D16B4B1B6803F40033002BF8
:1053600019D10123C8E07B685B68022B03D07B68FE
:105370005B68032B07D1634B1B6803F00073002BA2
:1053800009D10123B8E05F4B1B6803F00203002B37
:1053900001D10123B0E05B495A4B9B6823F0030223
:1053A0007B685B6813438B60FDF75CFE78617B680C
:1053B0005B68012B12D10AE0FDF754FE02467B69BF
:1053C000D31A41F28832934201D9032394E04D4B22
:1053D0009B6803F00C03042BEED13EE07B685B6816
:1053E000022B12D10AE0FDF73DFE02467B69D31A7B
:1053F00041F28832934201D903237DE0414B9B68FF
:1054000003F00C03082BEED127E07B685B68032BCD
:105410001DD10AE0FDF726FE02467B69D31A41F250
:105420008832934201D9032366E0364B9B6803F030
:105430000C030C2BEED110E0FDF714FE02467B6945
:10544000D31A41F28832934201D9032354E02D4B01
:105450009B6803F00C03002BEED1294B1B6803F073
:105460000F023B689A420CD9254B3A68D2B21A70A7
:10547000234B1B6803F00F023B689A4201D00123C3
:105480003AE07B681B6803F00403002B08D01D4939
:105490001C4B9B6823F4E0527B68DB6813438B60F2
:1054A0007B681B6803F00803002B09D01549154BD6
:1054B0009B6823F460427B681B69DB0013438B60AD
:1054C00000F026F801460F4B9B6803F0F002F02332
:1054D0003B613B6993FAA3F3FB60FB68B3FA83F388
:1054E00022FA03F3084AD35C21FA03F3074A136054
:1054F0000020FBF7B5FD002318461837BD4680BDD8
:10550000003C0240003802402C71000800000020DE
:1055100080B48BB000AF0023FB6100237B620023CB
:10552000BB6100233B62364B9B6803F00C03042BEA
:1055300006D0082B07D0002B58D1324B3B6258E0E5
:10554000314B3B6255E02E4B5B6803F03F03FB6140
:105550002B4B5B6803F48003002B17D02A4AFB69AE
:10556000B2FBF3F2264B596847F6C0730B4047F67F
:10557000C071F960F96891FAA1F1B960B968B1FA3E
:1055800081F1CB4003FB02F37B6216E01D4AFB690D
:10559000B2FBF3F21A4B596847F6C0730B4047F65B
:1055A000C0717961796991FAA1F179607968B1FA8C
:1055B00081F1CB4003FB02F37B62114B5B6803F488
:1055C00040324FF440333B613B6993FAA3F33B60B5
:1055D0003B68B3FA83F322FA03F301335B00BB6148
:1055E0007A6ABB69B2FBF3F33B6202E0054B3B62B4
:1055F00000BF3B6A18462C37BD465DF8047B7047F8
:10560000003802400024F400001BB70080B400AF53
:10561000034B1B681846BD465DF8047B704700BF0E
:105620000000002080B582B000AFFFF7EFFF014619
:105630000B4B9B6803F4E0524FF4E0537B607B68B4
:1056400093FAA3F33B603B68B3FA83F322FA03F3C4
:10565000044AD35C21FA03F318460837BD4680BDDF
:10566000003802403C71000880B582B000AFFFF7FF
:10567000CDFF01460B4B9B6803F460424FF460433F
:105680007B607B6893FAA3F33B603B68B3FA83F3D8
:1056900022FA03F3044AD35C21FA03F318460837CD
:1056A000BD4680BD003802403C71000880B483B024
:1056B00000AF786039607B680F221A60124B9B68DC
:1056C00003F003027B685A600F4B9B6803F0F00203
:1056D0007B689A600C4B9B6803F4E0527B68DA604D
:1056E000094B9B6803F46043DA087B681A61074B37
:1056F0001B6803F00F023B681A6000BF0C37BD4601
:105700005DF8047B704700BF00380240003C024057
:1057100080B582B000AF78607B68002B01D1012397
:1057200055E07B6800229A627B6893F85130DBB2C7
:10573000002B06D17B68002283F850207868FBF7A5
:10574000F3FB7B68022283F851207B681B687A6830
:105750001268126822F040021A607B681B687A683F
:1057600051687A68926811437A68D26811437A68FE
:10577000126911437A68526911437A68926902F496
:10578000007211437A68D26911437A68126A114330
:105790007A68926A0A431A607B681B687A68926921
:1057A000120C02F004017A68526A0A435A607B685C
:1057B0001B687A681268D26922F40062DA617B6839
:1057C00000225A657B68012283F851200023184685
:1057D0000837BD4680BD00BF80B582B000AF78609D
:1057E0007B68002B01D101231DE07B6893F83930E1
:1057F000DBB2002B06D17B68002283F83820786862
:1058000000F016F87B68022283F839207B681A685A
:105810007B6804331946104600F052FA7B68012277
:1058200083F83920002318460837BD4680BD00BFE5
:1058300080B483B000AF786000BF0C37BD465DF820
:10584000047B704780B483B000AF78607B681B68CE
:105850007A681268D26842F00102DA607B681B68DD
:105860007A681268126842F001021A600023184632
:105870000C37BD465DF8047B704700BF80B582B031
:1058800000AF78607B68002B01D101231DE07B68AD
:1058900093F83930DBB2002B06D17B68002283F805
:1058A00038207868FCF7FAF97B68022283F83920FF
:1058B0007B681A687B6804331946104600F000FACA
:1058C0007B68012283F83920002318460837BD463B
:1058D00080BD00BF80B582B000AF78607B681B6878
:1058E0001B6903F00203002B22D07B681B68DB6876
:1058F00003F00203002B1BD07B681B686FF00202D1
:105900001A617B6801221A767B681B689B6903F029
:105910000303002B03D0786800F0B4F905E0786841
:1059200000F0A6F9786800F0B7F97B6800221A76D3
:105930007B681B681B6903F00403002B22D07B6883
:105940001B68DB6803F00403002B1BD07B681B681B
:105950006FF004021A617B6802221A767B681B686A
:105960009B6903F44073002B03D0786800F08AF938
:1059700005E0786800F07CF9786800F08DF97B68C4
:1059800000221A767B681B681B6903F00803002B52
:1059900022D07B681B68DB6803F00803002B1BD058
:1059A0007B681B686FF008021A617B6804221A7614
:1059B0007B681B68DB6903F00303002B03D0786866
:1059C00000F060F905E0786800F052F9786800F0BE
:1059D00063F97B6800221A767B681B681B6903F0F9
:1059E0001003002B22D07B681B68DB6803F01003D8
:1059F000002B1BD07B681B686FF010021A617B685C
:105A000008221A767B681B68DB6903F44073002B5D
:105A100003D0786800F036F905E0786800F028F9DE
:105A2000786800F039F97B6800221A767B681B6879
:105A30001B6903F00103002B0ED07B681B68DB6839
:105A400003F00103002B07D07B681B686FF0010295
:105A50001A617868FDF74CF87B681B681B6903F0D6
:105A60008003002B0ED07B681B68DB6803F080038B
:105A7000002B07D07B681B686FF080021A61786882
:105A800000F036FC7B681B681B6903F04003002BA9
:105A90000ED07B681B68DB6803F04003002B07D047
:105AA0007B681B686FF040021A61786800F0FEF8AE
:105AB0007B681B681B6903F02003002B0ED07B68FA
:105AC0001B68DB6803F02003002B07D07B681B6892
:105AD0006FF020021A61786800F000FC00BF083700
